{
  "relayerAddress": "0xF2C142Dc0edEA277fa41A3B3198c628312e2AD25",
  "address": "0x1659fFb2d40DfB1671Ac226A0D9Dcc95A774521A",
  "abi": [
    {
      "inputs": [
        {
          "internalType": "address",
          "name": "defaultAdmin",
          "type": "address"
        },
        {
          "internalType": "address",
          "name": "childChainManager",
          "type": "address"
        }
      ],
      "stateMutability": "nonpayable",
      "type": "constructor"
    },
    {
      "anonymous": false,
      "inputs": [
        {
          "indexed": true,
          "internalType": "address",
          "name": "owner",
          "type": "address"
        },
        {
          "indexed": true,
          "internalType": "address",
          "name": "spender",
          "type": "address"
        },
        {
          "indexed": false,
          "internalType": "uint256",
          "name": "value",
          "type": "uint256"
        }
      ],
      "name": "Approval",
      "type": "event"
    },
    {
      "anonymous": false,
      "inputs": [
        {
          "indexed": false,
          "internalType": "address",
          "name": "account",
          "type": "address"
        }
      ],
      "name": "Paused",
      "type": "event"
    },
    {
      "anonymous": false,
      "inputs": [
        {
          "indexed": true,
          "internalType": "bytes32",
          "name": "role",
          "type": "bytes32"
        },
        {
          "indexed": true,
          "internalType": "bytes32",
          "name": "previousAdminRole",
          "type": "bytes32"
        },
        {
          "indexed": true,
          "internalType": "bytes32",
          "name": "newAdminRole",
          "type": "bytes32"
        }
      ],
      "name": "RoleAdminChanged",
      "type": "event"
    },
    {
      "anonymous": false,
      "inputs": [
        {
          "indexed": true,
          "internalType": "bytes32",
          "name": "role",
          "type": "bytes32"
        },
        {
          "indexed": true,
          "internalType": "address",
          "name": "account",
          "type": "address"
        },
        {
          "indexed": true,
          "internalType": "address",
          "name": "sender",
          "type": "address"
        }
      ],
      "name": "RoleGranted",
      "type": "event"
    },
    {
      "anonymous": false,
      "inputs": [
        {
          "indexed": true,
          "internalType": "bytes32",
          "name": "role",
          "type": "bytes32"
        },
        {
          "indexed": true,
          "internalType": "address",
          "name": "account",
          "type": "address"
        },
        {
          "indexed": true,
          "internalType": "address",
          "name": "sender",
          "type": "address"
        }
      ],
      "name": "RoleRevoked",
      "type": "event"
    },
    {
      "anonymous": false,
      "inputs": [
        {
          "indexed": true,
          "internalType": "address",
          "name": "from",
          "type": "address"
        },
        {
          "indexed": true,
          "internalType": "address",
          "name": "to",
          "type": "address"
        },
        {
          "indexed": false,
          "internalType": "uint256",
          "name": "value",
          "type": "uint256"
        }
      ],
      "name": "Transfer",
      "type": "event"
    },
    {
      "anonymous": false,
      "inputs": [
        {
          "indexed": false,
          "internalType": "address",
          "name": "account",
          "type": "address"
        }
      ],
      "name": "Unpaused",
      "type": "event"
    },
    {
      "inputs": [],
      "name": "DEFAULT_ADMIN_ROLE",
      "outputs": [
        {
          "internalType": "bytes32",
          "name": "",
          "type": "bytes32"
        }
      ],
      "stateMutability": "view",
      "type": "function"
    },
    {
      "inputs": [],
      "name": "DEPOSITOR_ROLE",
      "outputs": [
        {
          "internalType": "bytes32",
          "name": "",
          "type": "bytes32"
        }
      ],
      "stateMutability": "view",
      "type": "function"
    },
    {
      "inputs": [],
      "name": "DOMAIN_SEPARATOR",
      "outputs": [
        {
          "internalType": "bytes32",
          "name": "",
          "type": "bytes32"
        }
      ],
      "stateMutability": "view",
      "type": "function"
    },
    {
      "inputs": [],
      "name": "MINTER_ROLE",
      "outputs": [
        {
          "internalType": "bytes32",
          "name": "",
          "type": "bytes32"
        }
      ],
      "stateMutability": "view",
      "type": "function"
    },
    {
      "inputs": [],
      "name": "PAUSER_ROLE",
      "outputs": [
        {
          "internalType": "bytes32",
          "name": "",
          "type": "bytes32"
        }
      ],
      "stateMutability": "view",
      "type": "function"
    },
    {
      "inputs": [
        {
          "internalType": "address",
          "name": "owner",
          "type": "address"
        },
        {
          "internalType": "address",
          "name": "spender",
          "type": "address"
        }
      ],
      "name": "allowance",
      "outputs": [
        {
          "internalType": "uint256",
          "name": "",
          "type": "uint256"
        }
      ],
      "stateMutability": "view",
      "type": "function"
    },
    {
      "inputs": [
        {
          "internalType": "address",
          "name": "spender",
          "type": "address"
        },
        {
          "internalType": "uint256",
          "name": "amount",
          "type": "uint256"
        }
      ],
      "name": "approve",
      "outputs": [
        {
          "internalType": "bool",
          "name": "",
          "type": "bool"
        }
      ],
      "stateMutability": "nonpayable",
      "type": "function"
    },
    {
      "inputs": [
        {
          "internalType": "address",
          "name": "account",
          "type": "address"
        }
      ],
      "name": "balanceOf",
      "outputs": [
        {
          "internalType": "uint256",
          "name": "",
          "type": "uint256"
        }
      ],
      "stateMutability": "view",
      "type": "function"
    },
    {
      "inputs": [
        {
          "internalType": "uint256",
          "name": "amount",
          "type": "uint256"
        }
      ],
      "name": "burn",
      "outputs": [],
      "stateMutability": "nonpayable",
      "type": "function"
    },
    {
      "inputs": [
        {
          "internalType": "address",
          "name": "account",
          "type": "address"
        },
        {
          "internalType": "uint256",
          "name": "amount",
          "type": "uint256"
        }
      ],
      "name": "burnFrom",
      "outputs": [],
      "stateMutability": "nonpayable",
      "type": "function"
    },
    {
      "inputs": [],
      "name": "decimals",
      "outputs": [
        {
          "internalType": "uint8",
          "name": "",
          "type": "uint8"
        }
      ],
      "stateMutability": "view",
      "type": "function"
    },
    {
      "inputs": [
        {
          "internalType": "address",
          "name": "spender",
          "type": "address"
        },
        {
          "internalType": "uint256",
          "name": "subtractedValue",
          "type": "uint256"
        }
      ],
      "name": "decreaseAllowance",
      "outputs": [
        {
          "internalType": "bool",
          "name": "",
          "type": "bool"
        }
      ],
      "stateMutability": "nonpayable",
      "type": "function"
    },
    {
      "inputs": [
        {
          "internalType": "address",
          "name": "user",
          "type": "address"
        },
        {
          "internalType": "bytes",
          "name": "depositData",
          "type": "bytes"
        }
      ],
      "name": "deposit",
      "outputs": [],
      "stateMutability": "nonpayable",
      "type": "function"
    },
    {
      "inputs": [
        {
          "internalType": "bytes32",
          "name": "role",
          "type": "bytes32"
        }
      ],
      "name": "getRoleAdmin",
      "outputs": [
        {
          "internalType": "bytes32",
          "name": "",
          "type": "bytes32"
        }
      ],
      "stateMutability": "view",
      "type": "function"
    },
    {
      "inputs": [
        {
          "internalType": "bytes32",
          "name": "role",
          "type": "bytes32"
        },
        {
          "internalType": "uint256",
          "name": "index",
          "type": "uint256"
        }
      ],
      "name": "getRoleMember",
      "outputs": [
        {
          "internalType": "address",
          "name": "",
          "type": "address"
        }
      ],
      "stateMutability": "view",
      "type": "function"
    },
    {
      "inputs": [
        {
          "internalType": "bytes32",
          "name": "role",
          "type": "bytes32"
        }
      ],
      "name": "getRoleMemberCount",
      "outputs": [
        {
          "internalType": "uint256",
          "name": "",
          "type": "uint256"
        }
      ],
      "stateMutability": "view",
      "type": "function"
    },
    {
      "inputs": [
        {
          "internalType": "bytes32",
          "name": "role",
          "type": "bytes32"
        },
        {
          "internalType": "address",
          "name": "account",
          "type": "address"
        }
      ],
      "name": "grantRole",
      "outputs": [],
      "stateMutability": "nonpayable",
      "type": "function"
    },
    {
      "inputs": [
        {
          "internalType": "bytes32",
          "name": "role",
          "type": "bytes32"
        },
        {
          "internalType": "address",
          "name": "account",
          "type": "address"
        }
      ],
      "name": "hasRole",
      "outputs": [
        {
          "internalType": "bool",
          "name": "",
          "type": "bool"
        }
      ],
      "stateMutability": "view",
      "type": "function"
    },
    {
      "inputs": [
        {
          "internalType": "address",
          "name": "spender",
          "type": "address"
        },
        {
          "internalType": "uint256",
          "name": "addedValue",
          "type": "uint256"
        }
      ],
      "name": "increaseAllowance",
      "outputs": [
        {
          "internalType": "bool",
          "name": "",
          "type": "bool"
        }
      ],
      "stateMutability": "nonpayable",
      "type": "function"
    },
    {
      "inputs": [
        {
          "internalType": "address",
          "name": "to",
          "type": "address"
        },
        {
          "internalType": "uint256",
          "name": "amount",
          "type": "uint256"
        }
      ],
      "name": "mint",
      "outputs": [],
      "stateMutability": "nonpayable",
      "type": "function"
    },
    {
      "inputs": [],
      "name": "name",
      "outputs": [
        {
          "internalType": "string",
          "name": "",
          "type": "string"
        }
      ],
      "stateMutability": "view",
      "type": "function"
    },
    {
      "inputs": [
        {
          "internalType": "address",
          "name": "owner",
          "type": "address"
        }
      ],
      "name": "nonces",
      "outputs": [
        {
          "internalType": "uint256",
          "name": "",
          "type": "uint256"
        }
      ],
      "stateMutability": "view",
      "type": "function"
    },
    {
      "inputs": [],
      "name": "pause",
      "outputs": [],
      "stateMutability": "nonpayable",
      "type": "function"
    },
    {
      "inputs": [],
      "name": "paused",
      "outputs": [
        {
          "internalType": "bool",
          "name": "",
          "type": "bool"
        }
      ],
      "stateMutability": "view",
      "type": "function"
    },
    {
      "inputs": [
        {
          "internalType": "address",
          "name": "owner",
          "type": "address"
        },
        {
          "internalType": "address",
          "name": "spender",
          "type": "address"
        },
        {
          "internalType": "uint256",
          "name": "value",
          "type": "uint256"
        },
        {
          "internalType": "uint256",
          "name": "deadline",
          "type": "uint256"
        },
        {
          "internalType": "uint8",
          "name": "v",
          "type": "uint8"
        },
        {
          "internalType": "bytes32",
          "name": "r",
          "type": "bytes32"
        },
        {
          "internalType": "bytes32",
          "name": "s",
          "type": "bytes32"
        }
      ],
      "name": "permit",
      "outputs": [],
      "stateMutability": "nonpayable",
      "type": "function"
    },
    {
      "inputs": [
        {
          "internalType": "bytes32",
          "name": "role",
          "type": "bytes32"
        },
        {
          "internalType": "address",
          "name": "account",
          "type": "address"
        }
      ],
      "name": "renounceRole",
      "outputs": [],
      "stateMutability": "nonpayable",
      "type": "function"
    },
    {
      "inputs": [
        {
          "internalType": "bytes32",
          "name": "role",
          "type": "bytes32"
        },
        {
          "internalType": "address",
          "name": "account",
          "type": "address"
        }
      ],
      "name": "revokeRole",
      "outputs": [],
      "stateMutability": "nonpayable",
      "type": "function"
    },
    {
      "inputs": [
        {
          "internalType": "bytes4",
          "name": "interfaceId",
          "type": "bytes4"
        }
      ],
      "name": "supportsInterface",
      "outputs": [
        {
          "internalType": "bool",
          "name": "",
          "type": "bool"
        }
      ],
      "stateMutability": "view",
      "type": "function"
    },
    {
      "inputs": [],
      "name": "symbol",
      "outputs": [
        {
          "internalType": "string",
          "name": "",
          "type": "string"
        }
      ],
      "stateMutability": "view",
      "type": "function"
    },
    {
      "inputs": [],
      "name": "totalSupply",
      "outputs": [
        {
          "internalType": "uint256",
          "name": "",
          "type": "uint256"
        }
      ],
      "stateMutability": "view",
      "type": "function"
    },
    {
      "inputs": [
        {
          "internalType": "address",
          "name": "recipient",
          "type": "address"
        },
        {
          "internalType": "uint256",
          "name": "amount",
          "type": "uint256"
        }
      ],
      "name": "transfer",
      "outputs": [
        {
          "internalType": "bool",
          "name": "",
          "type": "bool"
        }
      ],
      "stateMutability": "nonpayable",
      "type": "function"
    },
    {
      "inputs": [
        {
          "internalType": "address",
          "name": "sender",
          "type": "address"
        },
        {
          "internalType": "address",
          "name": "recipient",
          "type": "address"
        },
        {
          "internalType": "uint256",
          "name": "amount",
          "type": "uint256"
        }
      ],
      "name": "transferFrom",
      "outputs": [
        {
          "internalType": "bool",
          "name": "",
          "type": "bool"
        }
      ],
      "stateMutability": "nonpayable",
      "type": "function"
    },
    {
      "inputs": [],
      "name": "unpause",
      "outputs": [],
      "stateMutability": "nonpayable",
      "type": "function"
    },
    {
      "inputs": [
        {
          "internalType": "uint256",
          "name": "amount",
          "type": "uint256"
        }
      ],
      "name": "withdraw",
      "outputs": [],
      "stateMutability": "nonpayable",
      "type": "function"
    }
  ],
  "transactionHash": "0x5f9c064c9b3a04024b5a3d47837689dddc6838148cbe717c365b2ddf038f1589",
  "args": [
    "0x7F6D2070bC4B9DF812939F884dd0e1c5324F8275",
    "0xb5505a6d998549090530911180f38aC5130101c6"
  ],
  "solcInputHash": "515bbd03d6670b451ed16134bf22857c",
  "bytecode": "0x6101406040527f6e71edae12b1b97f4d1f60370fef10105fa2faae0126114a169c64845d6126c9610120908152503480156200003a57600080fd5b5060405162004dc938038062004dc9833981810160405281019062000060919062000aa9565b6040518060400160405280600d81526020017f4461696c79436f70546f6b656e00000000000000000000000000000000000000815250806040518060400160405280600181526020017f31000000000000000000000000000000000000000000000000000000000000008152506040518060400160405280600d81526020017f4461696c79436f70546f6b656e000000000000000000000000000000000000008152506040518060400160405280600681526020017f444c59434f5000000000000000000000000000000000000000000000000000008152508181816005908051906020019062000153929190620009e2565b5080600690805190602001906200016c929190620009e2565b5050506000600760006101000a81548160ff021916908315150217905550620001ae6000801b620001a26200037860201b60201c565b6200038060201b60201c565b620001ef7f9f2df0fed2c77648de5860a4cc508cd0818c85b8b8a1ab4ceeef8d981c8956a6620001e36200037860201b60201c565b6200038060201b60201c565b620002307f65d7a28e3265b37a6474929f336521b332c1681b933f6cb9f3376673440d862a620002246200037860201b60201c565b6200038060201b60201c565b505060008280519060200120905060008280519060200120905060007f8b73c3c69bb8fe3d512ecc4cf759cc79239f7b179b0ffacaa9a75d522b39400f90508260c081815250508160e081815250504660a081815250506200029a818484620003c860201b60201c565b60808181525050806101008181525050505050505050620002c56000801b836200038060201b60201c565b620002f77f8f4f2da22e8ac8f11e15f9fc141cddbb5deea8800186560abb6e68c5496619a9826200038060201b60201c565b6200030c6000801b336200040460201b60201c565b6200033e7f9f2df0fed2c77648de5860a4cc508cd0818c85b8b8a1ab4ceeef8d981c8956a6336200040460201b60201c565b620003707f65d7a28e3265b37a6474929f336521b332c1681b933f6cb9f3376673440d862a336200040460201b60201c565b505062000d54565b600033905090565b6200039782826200044c60201b620012111760201c565b620003c381600160008581526020019081526020016000206200046260201b6200121f1790919060201c565b505050565b60008383834630604051602001620003e595949392919062000b44565b6040516020818303038152906040528051906020012090509392505050565b6200041b82826200049a60201b6200124f1760201c565b6200044781600160008581526020019081526020016000206200053060201b620012d21790919060201c565b505050565b6200045e82826200056860201b60201c565b5050565b600062000492836000018373ffffffffffffffffffffffffffffffffffffffff1660001b6200065960201b60201c565b905092915050565b620004aa6200037860201b60201c565b73ffffffffffffffffffffffffffffffffffffffff168173ffffffffffffffffffffffffffffffffffffffff16146200051a576040517f08c379a0000000000000000000000000000000000000000000000000000000008152600401620005119062000ba1565b60405180910390fd5b6200052c8282620006d360201b60201c565b5050565b600062000560836000018373ffffffffffffffffffffffffffffffffffffffff1660001b620007c560201b60201c565b905092915050565b6200057a82826200095560201b60201c565b6200065557600160008084815260200190815260200160002060000160008373ffffffffffffffffffffffffffffffffffffffff1673ffffffffffffffffffffffffffffffffffffffff16815260200190815260200160002060006101000a81548160ff021916908315150217905550620005fa6200037860201b60201c565b73ffffffffffffffffffffffffffffffffffffffff168173ffffffffffffffffffffffffffffffffffffffff16837f2f8788117e7eff1d82e926ec794901d17c78024a50270940304540a733656f0d60405160405180910390a45b5050565b60006200066d8383620009bf60201b60201c565b620006c8578260000182908060018154018082558091505060019003906000526020600020016000909190919091505582600001805490508360010160008481526020019081526020016000208190555060019050620006cd565b600090505b92915050565b620006e582826200095560201b60201c565b15620007c157600080600084815260200190815260200160002060000160008373ffffffffffffffffffffffffffffffffffffffff1673ffffffffffffffffffffffffffffffffffffffff16815260200190815260200160002060006101000a81548160ff021916908315150217905550620007666200037860201b60201c565b73ffffffffffffffffffffffffffffffffffffffff168173ffffffffffffffffffffffffffffffffffffffff16837ff6391f5c32d9c69d2a47ea670b442974b53935d1edc7fd64eb21e047a839171b60405160405180910390a45b5050565b6000808360010160008481526020019081526020016000205490506000811462000949576000600182620007fa919062000bd4565b905060006001866000018054905062000814919062000bd4565b9050818114620008d25760008660000182815481106200085d577f4e487b7100000000000000000000000000000000000000000000000000000000600052603260045260246000fd5b9060005260206000200154905080876000018481548110620008a8577f4e487b7100000000000000000000000000000000000000000000000000000000600052603260045260246000fd5b90600052602060002001819055508387600101600083815260200190815260200160002081905550505b856000018054806200090d577f4e487b7100000000000000000000000000000000000000000000000000000000600052603160045260246000fd5b6001900381819060005260206000200160009055905585600101600086815260200190815260200160002060009055600193505050506200094f565b60009150505b92915050565b600080600084815260200190815260200160002060000160008373ffffffffffffffffffffffffffffffffffffffff1673ffffffffffffffffffffffffffffffffffffffff16815260200190815260200160002060009054906101000a900460ff16905092915050565b600080836001016000848152602001908152602001600020541415905092915050565b828054620009f09062000c57565b90600052602060002090601f01602090048101928262000a14576000855562000a60565b82601f1062000a2f57805160ff191683800117855562000a60565b8280016001018555821562000a60579182015b8281111562000a5f57825182559160200191906001019062000a42565b5b50905062000a6f919062000a73565b5090565b5b8082111562000a8e57600081600090555060010162000a74565b5090565b60008151905062000aa38162000d3a565b92915050565b6000806040838503121562000abd57600080fd5b600062000acd8582860162000a92565b925050602062000ae08582860162000a92565b9150509250929050565b62000af58162000c0f565b82525050565b62000b068162000c23565b82525050565b600062000b1b602f8362000bc3565b915062000b288262000ceb565b604082019050919050565b62000b3e8162000c4d565b82525050565b600060a08201905062000b5b600083018862000afb565b62000b6a602083018762000afb565b62000b79604083018662000afb565b62000b88606083018562000b33565b62000b97608083018462000aea565b9695505050505050565b6000602082019050818103600083015262000bbc8162000b0c565b9050919050565b600082825260208201905092915050565b600062000be18262000c4d565b915062000bee8362000c4d565b92508282101562000c045762000c0362000c8d565b5b828203905092915050565b600062000c1c8262000c2d565b9050919050565b6000819050919050565b600073ffffffffffffffffffffffffffffffffffffffff82169050919050565b6000819050919050565b6000600282049050600182168062000c7057607f821691505b6020821081141562000c875762000c8662000cbc565b5b50919050565b7f4e487b7100000000000000000000000000000000000000000000000000000000600052601160045260246000fd5b7f4e487b7100000000000000000000000000000000000000000000000000000000600052602260045260246000fd5b7f416363657373436f6e74726f6c3a2063616e206f6e6c792072656e6f756e636560008201527f20726f6c657320666f722073656c660000000000000000000000000000000000602082015250565b62000d458162000c0f565b811462000d5157600080fd5b50565b60805160a05160c05160e051610100516101205161402562000da4600039600061101301526000611a2c01526000611a6e01526000611a4d015260006119d901526000611a0101526140256000f3fe608060405234801561001057600080fd5b50600436106102065760003560e01c806379cc67901161011a578063a457c2d7116100ad578063d505accf1161007c578063d505accf14610613578063d53913931461062f578063d547741f1461064d578063dd62ed3e14610669578063e63ab1e91461069957610206565b8063a457c2d714610567578063a9059cbb14610597578063ca15c873146105c7578063cf2c52cb146105f757610206565b806391d14854116100e957806391d14854146104dd57806395d89b411461050d578063a217fddf1461052b578063a3b0b5a31461054957610206565b806379cc6790146104575780637ecebe00146104735780638456cb59146104a35780639010d07c146104ad57610206565b8063313ce5671161019d5780633f4ba83a1161016c5780633f4ba83a146103c757806340c10f19146103d157806342966c68146103ed5780635c975abb1461040957806370a082311461042757610206565b8063313ce5671461033f5780633644e5151461035d57806336568abe1461037b578063395093511461039757610206565b806323b872dd116101d957806323b872dd146102a7578063248a9ca3146102d75780632e1a7d4d146103075780632f2ff15d1461032357610206565b806301ffc9a71461020b57806306fdde031461023b578063095ea7b31461025957806318160ddd14610289575b600080fd5b61022560048036038101906102209190612c23565b6106b7565b604051610232919061317e565b60405180910390f35b610243610731565b60405161025091906132ad565b60405180910390f35b610273600480360381019061026e9190612b46565b6107c3565b604051610280919061317e565b60405180910390f35b6102916107e1565b60405161029e91906135cf565b60405180910390f35b6102c160048036038101906102bc9190612a01565b6107eb565b6040516102ce919061317e565b60405180910390f35b6102f160048036038101906102ec9190612b82565b6108e3565b6040516102fe9190613199565b60405180910390f35b610321600480360381019061031c9190612c4c565b610902565b005b61033d60048036038101906103389190612bab565b610916565b005b61034761094a565b60405161035491906135ea565b60405180910390f35b610365610953565b6040516103729190613199565b60405180910390f35b61039560048036038101906103909190612bab565b610962565b005b6103b160048036038101906103ac9190612b46565b610996565b6040516103be919061317e565b60405180910390f35b6103cf610a42565b005b6103eb60048036038101906103e69190612b46565b610abc565b005b61040760048036038101906104029190612c4c565b610b3a565b005b610411610b4e565b60405161041e919061317e565b60405180910390f35b610441600480360381019061043c919061299c565b610b65565b60405161044e91906135cf565b60405180910390f35b610471600480360381019061046c9190612b46565b610bae565b005b61048d6004803603810190610488919061299c565b610c29565b60405161049a91906135cf565b60405180910390f35b6104ab610c79565b005b6104c760048036038101906104c29190612be7565b610cf3565b6040516104d49190613163565b60405180910390f35b6104f760048036038101906104f29190612bab565b610d22565b604051610504919061317e565b60405180910390f35b610515610d8c565b60405161052291906132ad565b60405180910390f35b610533610e1e565b6040516105409190613199565b60405180910390f35b610551610e25565b60405161055e9190613199565b60405180910390f35b610581600480360381019061057c9190612b46565b610e49565b60405161058e919061317e565b60405180910390f35b6105b160048036038101906105ac9190612b46565b610f34565b6040516105be919061317e565b60405180910390f35b6105e160048036038101906105dc9190612b82565b610f52565b6040516105ee91906135cf565b60405180910390f35b610611600480360381019061060c9190612aee565b610f76565b005b61062d60048036038101906106289190612a50565b610fcc565b005b61063761110e565b6040516106449190613199565b60405180910390f35b61066760048036038101906106629190612bab565b611132565b005b610683600480360381019061067e91906129c5565b611166565b60405161069091906135cf565b60405180910390f35b6106a16111ed565b6040516106ae9190613199565b60405180910390f35b60007f5a05180f000000000000000000000000000000000000000000000000000000007bffffffffffffffffffffffffffffffffffffffffffffffffffffffff1916827bffffffffffffffffffffffffffffffffffffffffffffffffffffffff1916148061072a575061072982611302565b5b9050919050565b606060058054610740906137f8565b80601f016020809104026020016040519081016040528092919081815260200182805461076c906137f8565b80156107b95780601f1061078e576101008083540402835291602001916107b9565b820191906000526020600020905b81548152906001019060200180831161079c57829003601f168201915b5050505050905090565b60006107d76107d061137c565b8484611384565b6001905092915050565b6000600454905090565b60006107f884848461154f565b6000600360008673ffffffffffffffffffffffffffffffffffffffff1673ffffffffffffffffffffffffffffffffffffffff168152602001908152602001600020600061084361137c565b73ffffffffffffffffffffffffffffffffffffffff1673ffffffffffffffffffffffffffffffffffffffff168152602001908152602001600020549050828110156108c3576040517f08c379a00000000000000000000000000000000000000000000000000000000081526004016108ba9061346f565b60405180910390fd5b6108d7856108cf61137c565b858403611384565b60019150509392505050565b6000806000838152602001908152602001600020600101549050919050565b61091361090d61137c565b826117d3565b50565b61092082826119ac565b610945816001600085815260200190815260200160002061121f90919063ffffffff16565b505050565b60006012905090565b600061095d6119d5565b905090565b61096c828261124f565b61099181600160008581526020019081526020016000206112d290919063ffffffff16565b505050565b6000610a386109a361137c565b8484600360006109b161137c565b73ffffffffffffffffffffffffffffffffffffffff1673ffffffffffffffffffffffffffffffffffffffff16815260200190815260200160002060008873ffffffffffffffffffffffffffffffffffffffff1673ffffffffffffffffffffffffffffffffffffffff16815260200190815260200160002054610a33919061362c565b611384565b6001905092915050565b610a737f65d7a28e3265b37a6474929f336521b332c1681b933f6cb9f3376673440d862a610a6e61137c565b610d22565b610ab2576040517f08c379a0000000000000000000000000000000000000000000000000000000008152600401610aa99061336f565b60405180910390fd5b610aba611a98565b565b610aed7f9f2df0fed2c77648de5860a4cc508cd0818c85b8b8a1ab4ceeef8d981c8956a6610ae861137c565b610d22565b610b2c576040517f08c379a0000000000000000000000000000000000000000000000000000000008152600401610b239061348f565b60405180910390fd5b610b368282611b3a565b5050565b610b4b610b4561137c565b826117d3565b50565b6000600760009054906101000a900460ff16905090565b6000600260008373ffffffffffffffffffffffffffffffffffffffff1673ffffffffffffffffffffffffffffffffffffffff168152602001908152602001600020549050919050565b6000610bc183610bbc61137c565b611166565b905081811015610c06576040517f08c379a0000000000000000000000000000000000000000000000000000000008152600401610bfd906134af565b60405180910390fd5b610c1a83610c1261137c565b848403611384565b610c2483836117d3565b505050565b6000610c72600860008473ffffffffffffffffffffffffffffffffffffffff1673ffffffffffffffffffffffffffffffffffffffff168152602001908152602001600020611c9b565b9050919050565b610caa7f65d7a28e3265b37a6474929f336521b332c1681b933f6cb9f3376673440d862a610ca561137c565b610d22565b610ce9576040517f08c379a0000000000000000000000000000000000000000000000000000000008152600401610ce09061352f565b60405180910390fd5b610cf1611ca9565b565b6000610d1a8260016000868152602001908152602001600020611d4c90919063ffffffff16565b905092915050565b600080600084815260200190815260200160002060000160008373ffffffffffffffffffffffffffffffffffffffff1673ffffffffffffffffffffffffffffffffffffffff16815260200190815260200160002060009054906101000a900460ff16905092915050565b606060068054610d9b906137f8565b80601f0160208091040260200160405190810160405280929190818152602001828054610dc7906137f8565b8015610e145780601f10610de957610100808354040283529160200191610e14565b820191906000526020600020905b815481529060010190602001808311610df757829003601f168201915b5050505050905090565b6000801b81565b7f8f4f2da22e8ac8f11e15f9fc141cddbb5deea8800186560abb6e68c5496619a981565b60008060036000610e5861137c565b73ffffffffffffffffffffffffffffffffffffffff1673ffffffffffffffffffffffffffffffffffffffff16815260200190815260200160002060008573ffffffffffffffffffffffffffffffffffffffff1673ffffffffffffffffffffffffffffffffffffffff16815260200190815260200160002054905082811015610f15576040517f08c379a0000000000000000000000000000000000000000000000000000000008152600401610f0c9061354f565b60405180910390fd5b610f29610f2061137c565b85858403611384565b600191505092915050565b6000610f48610f4161137c565b848461154f565b6001905092915050565b6000610f6f60016000848152602001908152602001600020611d66565b9050919050565b7f8f4f2da22e8ac8f11e15f9fc141cddbb5deea8800186560abb6e68c5496619a9610fa881610fa361137c565b611d7b565b60008383810190610fb99190612c4c565b9050610fc58582611b3a565b5050505050565b8342111561100f576040517f08c379a0000000000000000000000000000000000000000000000000000000008152600401611006906133af565b60405180910390fd5b60007f000000000000000000000000000000000000000000000000000000000000000088888861103e8c611e18565b89604051602001611054969594939291906131b4565b604051602081830303815290604052805190602001209050600061107782611e76565b9050600061108782878787611e90565b90508973ffffffffffffffffffffffffffffffffffffffff168173ffffffffffffffffffffffffffffffffffffffff16146110f7576040517f08c379a00000000000000000000000000000000000000000000000000000000081526004016110ee9061344f565b60405180910390fd5b6111028a8a8a611384565b50505050505050505050565b7f9f2df0fed2c77648de5860a4cc508cd0818c85b8b8a1ab4ceeef8d981c8956a681565b61113c828261201b565b61116181600160008581526020019081526020016000206112d290919063ffffffff16565b505050565b6000600360008473ffffffffffffffffffffffffffffffffffffffff1673ffffffffffffffffffffffffffffffffffffffff16815260200190815260200160002060008373ffffffffffffffffffffffffffffffffffffffff1673ffffffffffffffffffffffffffffffffffffffff16815260200190815260200160002054905092915050565b7f65d7a28e3265b37a6474929f336521b332c1681b933f6cb9f3376673440d862a81565b61121b8282612044565b5050565b6000611247836000018373ffffffffffffffffffffffffffffffffffffffff1660001b612124565b905092915050565b61125761137c565b73ffffffffffffffffffffffffffffffffffffffff168173ffffffffffffffffffffffffffffffffffffffff16146112c4576040517f08c379a00000000000000000000000000000000000000000000000000000000081526004016112bb9061356f565b60405180910390fd5b6112ce8282612194565b5050565b60006112fa836000018373ffffffffffffffffffffffffffffffffffffffff1660001b612275565b905092915050565b60007f7965db0b000000000000000000000000000000000000000000000000000000007bffffffffffffffffffffffffffffffffffffffffffffffffffffffff1916827bffffffffffffffffffffffffffffffffffffffffffffffffffffffff191614806113755750611374826123fb565b5b9050919050565b600033905090565b600073ffffffffffffffffffffffffffffffffffffffff168373ffffffffffffffffffffffffffffffffffffffff1614156113f4576040517f08c379a00000000000000000000000000000000000000000000000000000000081526004016113eb9061350f565b60405180910390fd5b600073ffffffffffffffffffffffffffffffffffffffff168273ffffffffffffffffffffffffffffffffffffffff161415611464576040517f08c379a000000000000000000000000000000000000000000000000000000000815260040161145b9061338f565b60405180910390fd5b80600360008573ffffffffffffffffffffffffffffffffffffffff1673ffffffffffffffffffffffffffffffffffffffff16815260200190815260200160002060008473ffffffffffffffffffffffffffffffffffffffff1673ffffffffffffffffffffffffffffffffffffffff168152602001908152602001600020819055508173ffffffffffffffffffffffffffffffffffffffff168373ffffffffffffffffffffffffffffffffffffffff167f8c5be1e5ebec7d5bd14f71427d1e84f3dd0314c0f7b2291e5b200ac8c7c3b9258360405161154291906135cf565b60405180910390a3505050565b600073ffffffffffffffffffffffffffffffffffffffff168373ffffffffffffffffffffffffffffffffffffffff1614156115bf576040517f08c379a00000000000000000000000000000000000000000000000000000000081526004016115b6906134ef565b60405180910390fd5b600073ffffffffffffffffffffffffffffffffffffffff168273ffffffffffffffffffffffffffffffffffffffff16141561162f576040517f08c379a00000000000000000000000000000000000000000000000000000000081526004016116269061330f565b60405180910390fd5b61163a838383612465565b6000600260008573ffffffffffffffffffffffffffffffffffffffff1673ffffffffffffffffffffffffffffffffffffffff168152602001908152602001600020549050818110156116c1576040517f08c379a00000000000000000000000000000000000000000000000000000000081526004016116b8906133cf565b60405180910390fd5b818103600260008673ffffffffffffffffffffffffffffffffffffffff1673ffffffffffffffffffffffffffffffffffffffff1681526020019081526020016000208190555081600260008573ffffffffffffffffffffffffffffffffffffffff1673ffffffffffffffffffffffffffffffffffffffff1681526020019081526020016000206000828254611756919061362c565b925050819055508273ffffffffffffffffffffffffffffffffffffffff168473ffffffffffffffffffffffffffffffffffffffff167fddf252ad1be2c89b69c2b068fc378daa952ba7f163c4a11628f55a4df523b3ef846040516117ba91906135cf565b60405180910390a36117cd848484612475565b50505050565b600073ffffffffffffffffffffffffffffffffffffffff168273ffffffffffffffffffffffffffffffffffffffff161415611843576040517f08c379a000000000000000000000000000000000000000000000000000000000815260040161183a906134cf565b60405180910390fd5b61184f82600083612465565b6000600260008473ffffffffffffffffffffffffffffffffffffffff1673ffffffffffffffffffffffffffffffffffffffff168152602001908152602001600020549050818110156118d6576040517f08c379a00000000000000000000000000000000000000000000000000000000081526004016118cd9061334f565b60405180910390fd5b818103600260008573ffffffffffffffffffffffffffffffffffffffff1673ffffffffffffffffffffffffffffffffffffffff16815260200190815260200160002081905550816004600082825461192e91906136dc565b92505081905550600073ffffffffffffffffffffffffffffffffffffffff168373ffffffffffffffffffffffffffffffffffffffff167fddf252ad1be2c89b69c2b068fc378daa952ba7f163c4a11628f55a4df523b3ef8460405161199391906135cf565b60405180910390a36119a783600084612475565b505050565b6119b5826108e3565b6119c6816119c161137c565b611d7b565b6119d08383612044565b505050565b60007f0000000000000000000000000000000000000000000000000000000000000000461415611a27577f00000000000000000000000000000000000000000000000000000000000000009050611a95565b611a927f00000000000000000000000000000000000000000000000000000000000000007f00000000000000000000000000000000000000000000000000000000000000007f000000000000000000000000000000000000000000000000000000000000000061247a565b90505b90565b611aa0610b4e565b611adf576040517f08c379a0000000000000000000000000000000000000000000000000000000008152600401611ad69061332f565b60405180910390fd5b6000600760006101000a81548160ff0219169083151502179055507f5db9ee0a495bf2e6ff9c91a7834c1ba4fdd244a5e8aa4e537bd38aeae4b073aa611b2361137c565b604051611b309190613163565b60405180910390a1565b600073ffffffffffffffffffffffffffffffffffffffff168273ffffffffffffffffffffffffffffffffffffffff161415611baa576040517f08c379a0000000000000000000000000000000000000000000000000000000008152600401611ba19061358f565b60405180910390fd5b611bb660008383612465565b8060046000828254611bc8919061362c565b9250508190555080600260008473ffffffffffffffffffffffffffffffffffffffff1673ffffffffffffffffffffffffffffffffffffffff1681526020019081526020016000206000828254611c1e919061362c565b925050819055508173ffffffffffffffffffffffffffffffffffffffff16600073ffffffffffffffffffffffffffffffffffffffff167fddf252ad1be2c89b69c2b068fc378daa952ba7f163c4a11628f55a4df523b3ef83604051611c8391906135cf565b60405180910390a3611c9760008383612475565b5050565b600081600001549050919050565b611cb1610b4e565b15611cf1576040517f08c379a0000000000000000000000000000000000000000000000000000000008152600401611ce89061340f565b60405180910390fd5b6001600760006101000a81548160ff0219169083151502179055507f62e78cea01bee320cd4e420270b5ea74000d11b0c9f74754ebdbfc544b05a258611d3561137c565b604051611d429190613163565b60405180910390a1565b6000611d5b83600001836124b4565b60001c905092915050565b6000611d7482600001612505565b9050919050565b611d858282610d22565b611e1457611daa8173ffffffffffffffffffffffffffffffffffffffff166014612516565b611db88360001c6020612516565b604051602001611dc9929190613129565b6040516020818303038152906040526040517f08c379a0000000000000000000000000000000000000000000000000000000008152600401611e0b91906132ad565b60405180910390fd5b5050565b600080600860008473ffffffffffffffffffffffffffffffffffffffff1673ffffffffffffffffffffffffffffffffffffffff1681526020019081526020016000209050611e6581611c9b565b9150611e7081612810565b50919050565b6000611e89611e836119d5565b83612826565b9050919050565b60007f7fffffffffffffffffffffffffffffff5d576e7357a4501ddfe92f46681b20a08260001c1115611ef8576040517f08c379a0000000000000000000000000000000000000000000000000000000008152600401611eef906133ef565b60405180910390fd5b601b8460ff161480611f0d5750601c8460ff16145b611f4c576040517f08c379a0000000000000000000000000000000000000000000000000000000008152600401611f439061342f565b60405180910390fd5b600060018686868660405160008152602001604052604051611f719493929190613268565b6020604051602081039080840390855afa158015611f93573d6000803e3d6000fd5b505050602060405103519050600073ffffffffffffffffffffffffffffffffffffffff168173ffffffffffffffffffffffffffffffffffffffff16141561200f576040517f08c379a0000000000000000000000000000000000000000000000000000000008152600401612006906132cf565b60405180910390fd5b80915050949350505050565b612024826108e3565b6120358161203061137c565b611d7b565b61203f8383612194565b505050565b61204e8282610d22565b61212057600160008084815260200190815260200160002060000160008373ffffffffffffffffffffffffffffffffffffffff1673ffffffffffffffffffffffffffffffffffffffff16815260200190815260200160002060006101000a81548160ff0219169083151502179055506120c561137c565b73ffffffffffffffffffffffffffffffffffffffff168173ffffffffffffffffffffffffffffffffffffffff16837f2f8788117e7eff1d82e926ec794901d17c78024a50270940304540a733656f0d60405160405180910390a45b5050565b60006121308383612859565b61218957826000018290806001815401808255809150506001900390600052602060002001600090919091909150558260000180549050836001016000848152602001908152602001600020819055506001905061218e565b600090505b92915050565b61219e8282610d22565b1561227157600080600084815260200190815260200160002060000160008373ffffffffffffffffffffffffffffffffffffffff1673ffffffffffffffffffffffffffffffffffffffff16815260200190815260200160002060006101000a81548160ff02191690831515021790555061221661137c565b73ffffffffffffffffffffffffffffffffffffffff168173ffffffffffffffffffffffffffffffffffffffff16837ff6391f5c32d9c69d2a47ea670b442974b53935d1edc7fd64eb21e047a839171b60405160405180910390a45b5050565b600080836001016000848152602001908152602001600020549050600081146123ef5760006001826122a791906136dc565b90506000600186600001805490506122bf91906136dc565b905081811461237a576000866000018281548110612306577f4e487b7100000000000000000000000000000000000000000000000000000000600052603260045260246000fd5b9060005260206000200154905080876000018481548110612350577f4e487b7100000000000000000000000000000000000000000000000000000000600052603260045260246000fd5b90600052602060002001819055508387600101600083815260200190815260200160002081905550505b856000018054806123b4577f4e487b7100000000000000000000000000000000000000000000000000000000600052603160045260246000fd5b6001900381819060005260206000200160009055905585600101600086815260200190815260200160002060009055600193505050506123f5565b60009150505b92915050565b60007f01ffc9a7000000000000000000000000000000000000000000000000000000007bffffffffffffffffffffffffffffffffffffffffffffffffffffffff1916827bffffffffffffffffffffffffffffffffffffffffffffffffffffffff1916149050919050565b61247083838361287c565b505050565b505050565b60008383834630604051602001612495959493929190613215565b6040516020818303038152906040528051906020012090509392505050565b60008260000182815481106124f2577f4e487b7100000000000000000000000000000000000000000000000000000000600052603260045260246000fd5b9060005260206000200154905092915050565b600081600001805490509050919050565b6060600060028360026125299190613682565b612533919061362c565b67ffffffffffffffff811115612572577f4e487b7100000000000000000000000000000000000000000000000000000000600052604160045260246000fd5b6040519080825280601f01601f1916602001820160405280156125a45781602001600182028036833780820191505090505b5090507f300000000000000000000000000000000000000000000000000000000000000081600081518110612602577f4e487b7100000000000000000000000000000000000000000000000000000000600052603260045260246000fd5b60200101907effffffffffffffffffffffffffffffffffffffffffffffffffffffffffffff1916908160001a9053507f78000000000000000000000000000000000000000000000000000000000000008160018151811061268c577f4e487b7100000000000000000000000000000000000000000000000000000000600052603260045260246000fd5b60200101907effffffffffffffffffffffffffffffffffffffffffffffffffffffffffffff1916908160001a905350600060018460026126cc9190613682565b6126d6919061362c565b90505b60018111156127c2577f3031323334353637383961626364656600000000000000000000000000000000600f86166010811061273e577f4e487b7100000000000000000000000000000000000000000000000000000000600052603260045260246000fd5b1a60f81b82828151811061277b577f4e487b7100000000000000000000000000000000000000000000000000000000600052603260045260246000fd5b60200101907effffffffffffffffffffffffffffffffffffffffffffffffffffffffffffff1916908160001a905350600485901c9450806127bb906137ce565b90506126d9565b5060008414612806576040517f08c379a00000000000000000000000000000000000000000000000000000000081526004016127fd906132ef565b60405180910390fd5b8091505092915050565b6001816000016000828254019250508190555050565b6000828260405160200161283b9291906130f2565b60405160208183030381529060405280519060200120905092915050565b600080836001016000848152602001908152602001600020541415905092915050565b61288783838361288c565b505050565b6128978383836128e4565b61289f610b4e565b156128df576040517f08c379a00000000000000000000000000000000000000000000000000000000081526004016128d6906135af565b60405180910390fd5b505050565b505050565b6000813590506128f881613f7c565b92915050565b60008135905061290d81613f93565b92915050565b60008135905061292281613faa565b92915050565b60008083601f84011261293a57600080fd5b8235905067ffffffffffffffff81111561295357600080fd5b60208301915083600182028301111561296b57600080fd5b9250929050565b60008135905061298181613fc1565b92915050565b60008135905061299681613fd8565b92915050565b6000602082840312156129ae57600080fd5b60006129bc848285016128e9565b91505092915050565b600080604083850312156129d857600080fd5b60006129e6858286016128e9565b92505060206129f7858286016128e9565b9150509250929050565b600080600060608486031215612a1657600080fd5b6000612a24868287016128e9565b9350506020612a35868287016128e9565b9250506040612a4686828701612972565b9150509250925092565b600080600080600080600060e0888a031215612a6b57600080fd5b6000612a798a828b016128e9565b9750506020612a8a8a828b016128e9565b9650506040612a9b8a828b01612972565b9550506060612aac8a828b01612972565b9450506080612abd8a828b01612987565b93505060a0612ace8a828b016128fe565b92505060c0612adf8a828b016128fe565b91505092959891949750929550565b600080600060408486031215612b0357600080fd5b6000612b11868287016128e9565b935050602084013567ffffffffffffffff811115612b2e57600080fd5b612b3a86828701612928565b92509250509250925092565b60008060408385031215612b5957600080fd5b6000612b67858286016128e9565b9250506020612b7885828601612972565b9150509250929050565b600060208284031215612b9457600080fd5b6000612ba2848285016128fe565b91505092915050565b60008060408385031215612bbe57600080fd5b6000612bcc858286016128fe565b9250506020612bdd858286016128e9565b9150509250929050565b60008060408385031215612bfa57600080fd5b6000612c08858286016128fe565b9250506020612c1985828601612972565b9150509250929050565b600060208284031215612c3557600080fd5b6000612c4384828501612913565b91505092915050565b600060208284031215612c5e57600080fd5b6000612c6c84828501612972565b91505092915050565b612c7e81613710565b82525050565b612c8d81613722565b82525050565b612c9c8161372e565b82525050565b612cb3612cae8261372e565b61382a565b82525050565b6000612cc482613605565b612cce8185613610565b9350612cde81856020860161379b565b612ce781613892565b840191505092915050565b6000612cfd82613605565b612d078185613621565b9350612d1781856020860161379b565b80840191505092915050565b6000612d30601883613610565b9150612d3b826138a3565b602082019050919050565b6000612d53602083613610565b9150612d5e826138cc565b602082019050919050565b6000612d76602383613610565b9150612d81826138f5565b604082019050919050565b6000612d99601483613610565b9150612da482613944565b602082019050919050565b6000612dbc602283613610565b9150612dc78261396d565b604082019050919050565b6000612ddf603983613610565b9150612dea826139bc565b604082019050919050565b6000612e02602283613610565b9150612e0d82613a0b565b604082019050919050565b6000612e25600283613621565b9150612e3082613a5a565b600282019050919050565b6000612e48601d83613610565b9150612e5382613a83565b602082019050919050565b6000612e6b602683613610565b9150612e7682613aac565b604082019050919050565b6000612e8e602283613610565b9150612e9982613afb565b604082019050919050565b6000612eb1601083613610565b9150612ebc82613b4a565b602082019050919050565b6000612ed4602283613610565b9150612edf82613b73565b604082019050919050565b6000612ef7601e83613610565b9150612f0282613bc2565b602082019050919050565b6000612f1a602883613610565b9150612f2582613beb565b604082019050919050565b6000612f3d603683613610565b9150612f4882613c3a565b604082019050919050565b6000612f60602483613610565b9150612f6b82613c89565b604082019050919050565b6000612f83602183613610565b9150612f8e82613cd8565b604082019050919050565b6000612fa6602583613610565b9150612fb182613d27565b604082019050919050565b6000612fc9602483613610565b9150612fd482613d76565b604082019050919050565b6000612fec603783613610565b9150612ff782613dc5565b604082019050919050565b600061300f601783613621565b915061301a82613e14565b601782019050919050565b6000613032602583613610565b915061303d82613e3d565b604082019050919050565b6000613055601183613621565b915061306082613e8c565b601182019050919050565b6000613078602f83613610565b915061308382613eb5565b604082019050919050565b600061309b601f83613610565b91506130a682613f04565b602082019050919050565b60006130be602a83613610565b91506130c982613f2d565b604082019050919050565b6130dd81613784565b82525050565b6130ec8161378e565b82525050565b60006130fd82612e18565b91506131098285612ca2565b6020820191506131198284612ca2565b6020820191508190509392505050565b600061313482613002565b91506131408285612cf2565b915061314b82613048565b91506131578284612cf2565b91508190509392505050565b60006020820190506131786000830184612c75565b92915050565b60006020820190506131936000830184612c84565b92915050565b60006020820190506131ae6000830184612c93565b92915050565b600060c0820190506131c96000830189612c93565b6131d66020830188612c75565b6131e36040830187612c75565b6131f060608301866130d4565b6131fd60808301856130d4565b61320a60a08301846130d4565b979650505050505050565b600060a08201905061322a6000830188612c93565b6132376020830187612c93565b6132446040830186612c93565b61325160608301856130d4565b61325e6080830184612c75565b9695505050505050565b600060808201905061327d6000830187612c93565b61328a60208301866130e3565b6132976040830185612c93565b6132a46060830184612c93565b95945050505050565b600060208201905081810360008301526132c78184612cb9565b905092915050565b600060208201905081810360008301526132e881612d23565b9050919050565b6000602082019050818103600083015261330881612d46565b9050919050565b6000602082019050818103600083015261332881612d69565b9050919050565b6000602082019050818103600083015261334881612d8c565b9050919050565b6000602082019050818103600083015261336881612daf565b9050919050565b6000602082019050818103600083015261338881612dd2565b9050919050565b600060208201905081810360008301526133a881612df5565b9050919050565b600060208201905081810360008301526133c881612e3b565b9050919050565b600060208201905081810360008301526133e881612e5e565b9050919050565b6000602082019050818103600083015261340881612e81565b9050919050565b6000602082019050818103600083015261342881612ea4565b9050919050565b6000602082019050818103600083015261344881612ec7565b9050919050565b6000602082019050818103600083015261346881612eea565b9050919050565b6000602082019050818103600083015261348881612f0d565b9050919050565b600060208201905081810360008301526134a881612f30565b9050919050565b600060208201905081810360008301526134c881612f53565b9050919050565b600060208201905081810360008301526134e881612f76565b9050919050565b6000602082019050818103600083015261350881612f99565b9050919050565b6000602082019050818103600083015261352881612fbc565b9050919050565b6000602082019050818103600083015261354881612fdf565b9050919050565b6000602082019050818103600083015261356881613025565b9050919050565b600060208201905081810360008301526135888161306b565b9050919050565b600060208201905081810360008301526135a88161308e565b9050919050565b600060208201905081810360008301526135c8816130b1565b9050919050565b60006020820190506135e460008301846130d4565b92915050565b60006020820190506135ff60008301846130e3565b92915050565b600081519050919050565b600082825260208201905092915050565b600081905092915050565b600061363782613784565b915061364283613784565b9250827fffffffffffffffffffffffffffffffffffffffffffffffffffffffffffffffff0382111561367757613676613834565b5b828201905092915050565b600061368d82613784565b915061369883613784565b9250817fffffffffffffffffffffffffffffffffffffffffffffffffffffffffffffffff04831182151516156136d1576136d0613834565b5b828202905092915050565b60006136e782613784565b91506136f283613784565b92508282101561370557613704613834565b5b828203905092915050565b600061371b82613764565b9050919050565b60008115159050919050565b6000819050919050565b60007fffffffff0000000000000000000000000000000000000000000000000000000082169050919050565b600073ffffffffffffffffffffffffffffffffffffffff82169050919050565b6000819050919050565b600060ff82169050919050565b60005b838110156137b957808201518184015260208101905061379e565b838111156137c8576000848401525b50505050565b60006137d982613784565b915060008214156137ed576137ec613834565b5b600182039050919050565b6000600282049050600182168061381057607f821691505b6020821081141561382457613823613863565b5b50919050565b6000819050919050565b7f4e487b7100000000000000000000000000000000000000000000000000000000600052601160045260246000fd5b7f4e487b7100000000000000000000000000000000000000000000000000000000600052602260045260246000fd5b6000601f19601f8301169050919050565b7f45434453413a20696e76616c6964207369676e61747572650000000000000000600082015250565b7f537472696e67733a20686578206c656e67746820696e73756666696369656e74600082015250565b7f45524332303a207472616e7366657220746f20746865207a65726f206164647260008201527f6573730000000000000000000000000000000000000000000000000000000000602082015250565b7f5061757361626c653a206e6f7420706175736564000000000000000000000000600082015250565b7f45524332303a206275726e20616d6f756e7420657863656564732062616c616e60008201527f6365000000000000000000000000000000000000000000000000000000000000602082015250565b7f45524332305072657365744d696e7465725061757365723a206d75737420686160008201527f76652070617573657220726f6c6520746f20756e706175736500000000000000602082015250565b7f45524332303a20617070726f766520746f20746865207a65726f20616464726560008201527f7373000000000000000000000000000000000000000000000000000000000000602082015250565b7f1901000000000000000000000000000000000000000000000000000000000000600082015250565b7f45524332305065726d69743a206578706972656420646561646c696e65000000600082015250565b7f45524332303a207472616e7366657220616d6f756e742065786365656473206260008201527f616c616e63650000000000000000000000000000000000000000000000000000602082015250565b7f45434453413a20696e76616c6964207369676e6174757265202773272076616c60008201527f7565000000000000000000000000000000000000000000000000000000000000602082015250565b7f5061757361626c653a2070617573656400000000000000000000000000000000600082015250565b7f45434453413a20696e76616c6964207369676e6174757265202776272076616c60008201527f7565000000000000000000000000000000000000000000000000000000000000602082015250565b7f45524332305065726d69743a20696e76616c6964207369676e61747572650000600082015250565b7f45524332303a207472616e7366657220616d6f756e742065786365656473206160008201527f6c6c6f77616e6365000000000000000000000000000000000000000000000000602082015250565b7f45524332305072657365744d696e7465725061757365723a206d75737420686160008201527f7665206d696e74657220726f6c6520746f206d696e7400000000000000000000602082015250565b7f45524332303a206275726e20616d6f756e74206578636565647320616c6c6f7760008201527f616e636500000000000000000000000000000000000000000000000000000000602082015250565b7f45524332303a206275726e2066726f6d20746865207a65726f2061646472657360008201527f7300000000000000000000000000000000000000000000000000000000000000602082015250565b7f45524332303a207472616e736665722066726f6d20746865207a65726f20616460008201527f6472657373000000000000000000000000000000000000000000000000000000602082015250565b7f45524332303a20617070726f76652066726f6d20746865207a65726f2061646460008201527f7265737300000000000000000000000000000000000000000000000000000000602082015250565b7f45524332305072657365744d696e7465725061757365723a206d75737420686160008201527f76652070617573657220726f6c6520746f207061757365000000000000000000602082015250565b7f416363657373436f6e74726f6c3a206163636f756e7420000000000000000000600082015250565b7f45524332303a2064656372656173656420616c6c6f77616e63652062656c6f7760008201527f207a65726f000000000000000000000000000000000000000000000000000000602082015250565b7f206973206d697373696e6720726f6c6520000000000000000000000000000000600082015250565b7f416363657373436f6e74726f6c3a2063616e206f6e6c792072656e6f756e636560008201527f20726f6c657320666f722073656c660000000000000000000000000000000000602082015250565b7f45524332303a206d696e7420746f20746865207a65726f206164647265737300600082015250565b7f45524332305061757361626c653a20746f6b656e207472616e7366657220776860008201527f696c652070617573656400000000000000000000000000000000000000000000602082015250565b613f8581613710565b8114613f9057600080fd5b50565b613f9c8161372e565b8114613fa757600080fd5b50565b613fb381613738565b8114613fbe57600080fd5b50565b613fca81613784565b8114613fd557600080fd5b50565b613fe18161378e565b8114613fec57600080fd5b5056fea26469706673582212201b8ae590e3e38690b1f6a3bbd1fe552a72b83f749e78ab2d5ce92bbf7ef24d4964736f6c63430008040033",
  "devdoc": {
    "kind": "dev",
    "methods": {
      "DOMAIN_SEPARATOR()": {
        "details": "See {IERC20Permit-DOMAIN_SEPARATOR}."
      },
      "allowance(address,address)": {
        "details": "See {IERC20-allowance}."
      },
      "approve(address,uint256)": {
        "details": "See {IERC20-approve}. Requirements: - `spender` cannot be the zero address."
      },
      "balanceOf(address)": {
        "details": "See {IERC20-balanceOf}."
      },
      "burn(uint256)": {
        "details": "Destroys `amount` tokens from the caller. See {ERC20-_burn}."
      },
      "burnFrom(address,uint256)": {
        "details": "Destroys `amount` tokens from `account`, deducting from the caller's allowance. See {ERC20-_burn} and {ERC20-allowance}. Requirements: - the caller must have allowance for ``accounts``'s tokens of at least `amount`."
      },
      "decimals()": {
        "details": "Returns the number of decimals used to get its user representation. For example, if `decimals` equals `2`, a balance of `505` tokens should be displayed to a user as `5,05` (`505 / 10 ** 2`). Tokens usually opt for a value of 18, imitating the relationship between Ether and Wei. This is the value {ERC20} uses, unless this function is overridden; NOTE: This information is only used for _display_ purposes: it in no way affects any of the arithmetic of the contract, including {IERC20-balanceOf} and {IERC20-transfer}."
      },
      "decreaseAllowance(address,uint256)": {
        "details": "Atomically decreases the allowance granted to `spender` by the caller. This is an alternative to {approve} that can be used as a mitigation for problems described in {IERC20-approve}. Emits an {Approval} event indicating the updated allowance. Requirements: - `spender` cannot be the zero address. - `spender` must have allowance for the caller of at least `subtractedValue`."
      },
      "deposit(address,bytes)": {
        "details": "Should be callable only by ChildChainManager Should handle deposit by minting the required amount for user, not to create new tokens, but to move tokens previously swapped to the root chain back to the child chain",
        "params": {
          "depositData": "abi encoded amount",
          "user": "user address for whom deposit is being done"
        }
      },
      "getRoleAdmin(bytes32)": {
        "details": "Returns the admin role that controls `role`. See {grantRole} and {revokeRole}. To change a role's admin, use {_setRoleAdmin}."
      },
      "getRoleMember(bytes32,uint256)": {
        "details": "Returns one of the accounts that have `role`. `index` must be a value between 0 and {getRoleMemberCount}, non-inclusive. Role bearers are not sorted in any particular way, and their ordering may change at any point. WARNING: When using {getRoleMember} and {getRoleMemberCount}, make sure you perform all queries on the same block. See the following https://forum.openzeppelin.com/t/iterating-over-elements-on-enumerableset-in-openzeppelin-contracts/2296[forum post] for more information."
      },
      "getRoleMemberCount(bytes32)": {
        "details": "Returns the number of accounts that have `role`. Can be used together with {getRoleMember} to enumerate all bearers of a role."
      },
      "grantRole(bytes32,address)": {
        "details": "Overload {grantRole} to track enumerable memberships"
      },
      "hasRole(bytes32,address)": {
        "details": "Returns `true` if `account` has been granted `role`."
      },
      "increaseAllowance(address,uint256)": {
        "details": "Atomically increases the allowance granted to `spender` by the caller. This is an alternative to {approve} that can be used as a mitigation for problems described in {IERC20-approve}. Emits an {Approval} event indicating the updated allowance. Requirements: - `spender` cannot be the zero address."
      },
      "mint(address,uint256)": {
        "details": "Creates `amount` new tokens for `to`. See {ERC20-_mint}. Requirements: - the caller must have the `MINTER_ROLE`."
      },
      "name()": {
        "details": "Returns the name of the token."
      },
      "nonces(address)": {
        "details": "See {IERC20Permit-nonces}."
      },
      "pause()": {
        "details": "Pauses all token transfers. See {ERC20Pausable} and {Pausable-_pause}. Requirements: - the caller must have the `PAUSER_ROLE`."
      },
      "paused()": {
        "details": "Returns true if the contract is paused, and false otherwise."
      },
      "permit(address,address,uint256,uint256,uint8,bytes32,bytes32)": {
        "details": "See {IERC20Permit-permit}."
      },
      "renounceRole(bytes32,address)": {
        "details": "Overload {renounceRole} to track enumerable memberships"
      },
      "revokeRole(bytes32,address)": {
        "details": "Overload {revokeRole} to track enumerable memberships"
      },
      "supportsInterface(bytes4)": {
        "details": "See {IERC165-supportsInterface}."
      },
      "symbol()": {
        "details": "Returns the symbol of the token, usually a shorter version of the name."
      },
      "totalSupply()": {
        "details": "See {IERC20-totalSupply}."
      },
      "transfer(address,uint256)": {
        "details": "See {IERC20-transfer}. Requirements: - `recipient` cannot be the zero address. - the caller must have a balance of at least `amount`."
      },
      "transferFrom(address,address,uint256)": {
        "details": "See {IERC20-transferFrom}. Emits an {Approval} event indicating the updated allowance. This is not required by the EIP. See the note at the beginning of {ERC20}. Requirements: - `sender` and `recipient` cannot be the zero address. - `sender` must have a balance of at least `amount`. - the caller must have allowance for ``sender``'s tokens of at least `amount`."
      },
      "unpause()": {
        "details": "Unpauses all token transfers. See {ERC20Pausable} and {Pausable-_unpause}. Requirements: - the caller must have the `PAUSER_ROLE`."
      },
      "withdraw(uint256)": {
        "details": "Should burn user's tokens. This transaction will be verified when exiting on root chain",
        "params": {
          "amount": "amount of tokens to withdraw"
        }
      }
    },
    "version": 1
  },
  "userdoc": {
    "kind": "user",
    "methods": {
      "deposit(address,bytes)": {
        "notice": "called when token is deposited on root chain"
      },
      "withdraw(uint256)": {
        "notice": "called when user wants to withdraw tokens back to root chain"
      }
    },
    "version": 1
  },
  "storageLayout": {
    "storage": [
      {
        "astId": 808,
        "contract": "contracts/polygon/DailyCopTokenChild.sol:DailyCopTokenChild",
        "label": "_roles",
        "offset": 0,
        "slot": "0",
        "type": "t_mapping(t_bytes32,t_struct(RoleData)803_storage)"
      },
      {
        "astId": 1149,
        "contract": "contracts/polygon/DailyCopTokenChild.sol:DailyCopTokenChild",
        "label": "_roleMembers",
        "offset": 0,
        "slot": "1",
        "type": "t_mapping(t_bytes32,t_struct(AddressSet)3421_storage)"
      },
      {
        "astId": 1411,
        "contract": "contracts/polygon/DailyCopTokenChild.sol:DailyCopTokenChild",
        "label": "_balances",
        "offset": 0,
        "slot": "2",
        "type": "t_mapping(t_address,t_uint256)"
      },
      {
        "astId": 1417,
        "contract": "contracts/polygon/DailyCopTokenChild.sol:DailyCopTokenChild",
        "label": "_allowances",
        "offset": 0,
        "slot": "3",
        "type": "t_mapping(t_address,t_mapping(t_address,t_uint256))"
      },
      {
        "astId": 1419,
        "contract": "contracts/polygon/DailyCopTokenChild.sol:DailyCopTokenChild",
        "label": "_totalSupply",
        "offset": 0,
        "slot": "4",
        "type": "t_uint256"
      },
      {
        "astId": 1421,
        "contract": "contracts/polygon/DailyCopTokenChild.sol:DailyCopTokenChild",
        "label": "_name",
        "offset": 0,
        "slot": "5",
        "type": "t_string_storage"
      },
      {
        "astId": 1423,
        "contract": "contracts/polygon/DailyCopTokenChild.sol:DailyCopTokenChild",
        "label": "_symbol",
        "offset": 0,
        "slot": "6",
        "type": "t_string_storage"
      },
      {
        "astId": 1321,
        "contract": "contracts/polygon/DailyCopTokenChild.sol:DailyCopTokenChild",
        "label": "_paused",
        "offset": 0,
        "slot": "7",
        "type": "t_bool"
      },
      {
        "astId": 2166,
        "contract": "contracts/polygon/DailyCopTokenChild.sol:DailyCopTokenChild",
        "label": "_nonces",
        "offset": 0,
        "slot": "8",
        "type": "t_mapping(t_address,t_struct(Counter)2511_storage)"
      }
    ],
    "types": {
      "t_address": {
        "encoding": "inplace",
        "label": "address",
        "numberOfBytes": "20"
      },
      "t_array(t_bytes32)dyn_storage": {
        "base": "t_bytes32",
        "encoding": "dynamic_array",
        "label": "bytes32[]",
        "numberOfBytes": "32"
      },
      "t_bool": {
        "encoding": "inplace",
        "label": "bool",
        "numberOfBytes": "1"
      },
      "t_bytes32": {
        "encoding": "inplace",
        "label": "bytes32",
        "numberOfBytes": "32"
      },
      "t_mapping(t_address,t_bool)": {
        "encoding": "mapping",
        "key": "t_address",
        "label": "mapping(address => bool)",
        "numberOfBytes": "32",
        "value": "t_bool"
      },
      "t_mapping(t_address,t_mapping(t_address,t_uint256))": {
        "encoding": "mapping",
        "key": "t_address",
        "label": "mapping(address => mapping(address => uint256))",
        "numberOfBytes": "32",
        "value": "t_mapping(t_address,t_uint256)"
      },
      "t_mapping(t_address,t_struct(Counter)2511_storage)": {
        "encoding": "mapping",
        "key": "t_address",
        "label": "mapping(address => struct Counters.Counter)",
        "numberOfBytes": "32",
        "value": "t_struct(Counter)2511_storage"
      },
      "t_mapping(t_address,t_uint256)": {
        "encoding": "mapping",
        "key": "t_address",
        "label": "mapping(address => uint256)",
        "numberOfBytes": "32",
        "value": "t_uint256"
      },
      "t_mapping(t_bytes32,t_struct(AddressSet)3421_storage)": {
        "encoding": "mapping",
        "key": "t_bytes32",
        "label": "mapping(bytes32 => struct EnumerableSet.AddressSet)",
        "numberOfBytes": "32",
        "value": "t_struct(AddressSet)3421_storage"
      },
      "t_mapping(t_bytes32,t_struct(RoleData)803_storage)": {
        "encoding": "mapping",
        "key": "t_bytes32",
        "label": "mapping(bytes32 => struct AccessControl.RoleData)",
        "numberOfBytes": "32",
        "value": "t_struct(RoleData)803_storage"
      },
      "t_mapping(t_bytes32,t_uint256)": {
        "encoding": "mapping",
        "key": "t_bytes32",
        "label": "mapping(bytes32 => uint256)",
        "numberOfBytes": "32",
        "value": "t_uint256"
      },
      "t_string_storage": {
        "encoding": "bytes",
        "label": "string",
        "numberOfBytes": "32"
      },
      "t_struct(AddressSet)3421_storage": {
        "encoding": "inplace",
        "label": "struct EnumerableSet.AddressSet",
        "members": [
          {
            "astId": 3420,
            "contract": "contracts/polygon/DailyCopTokenChild.sol:DailyCopTokenChild",
            "label": "_inner",
            "offset": 0,
            "slot": "0",
            "type": "t_struct(Set)3150_storage"
          }
        ],
        "numberOfBytes": "64"
      },
      "t_struct(Counter)2511_storage": {
        "encoding": "inplace",
        "label": "struct Counters.Counter",
        "members": [
          {
            "astId": 2510,
            "contract": "contracts/polygon/DailyCopTokenChild.sol:DailyCopTokenChild",
            "label": "_value",
            "offset": 0,
            "slot": "0",
            "type": "t_uint256"
          }
        ],
        "numberOfBytes": "32"
      },
      "t_struct(RoleData)803_storage": {
        "encoding": "inplace",
        "label": "struct AccessControl.RoleData",
        "members": [
          {
            "astId": 800,
            "contract": "contracts/polygon/DailyCopTokenChild.sol:DailyCopTokenChild",
            "label": "members",
            "offset": 0,
            "slot": "0",
            "type": "t_mapping(t_address,t_bool)"
          },
          {
            "astId": 802,
            "contract": "contracts/polygon/DailyCopTokenChild.sol:DailyCopTokenChild",
            "label": "adminRole",
            "offset": 0,
            "slot": "1",
            "type": "t_bytes32"
          }
        ],
        "numberOfBytes": "64"
      },
      "t_struct(Set)3150_storage": {
        "encoding": "inplace",
        "label": "struct EnumerableSet.Set",
        "members": [
          {
            "astId": 3145,
            "contract": "contracts/polygon/DailyCopTokenChild.sol:DailyCopTokenChild",
            "label": "_values",
            "offset": 0,
            "slot": "0",
            "type": "t_array(t_bytes32)dyn_storage"
          },
          {
            "astId": 3149,
            "contract": "contracts/polygon/DailyCopTokenChild.sol:DailyCopTokenChild",
            "label": "_indexes",
            "offset": 0,
            "slot": "1",
            "type": "t_mapping(t_bytes32,t_uint256)"
          }
        ],
        "numberOfBytes": "64"
      },
      "t_uint256": {
        "encoding": "inplace",
        "label": "uint256",
        "numberOfBytes": "32"
      }
    }
  }
}